:060000000A128A11142906
:10000800F000030EF1000B180E20710E8300F00EA5
:10001800700E090003138312061C850A861C8503CB
:040028000B100800B1
:100200008A010A140F3982073F3406345B344F34B5
:1002100066346D347D3407347F346F3477347C3406
:1002200039345E347934713423211A213121031396
:1002300083121929031383161614961403138312B9
:1002400006080B10080003178316880189010313A1
:100250008316850106148614811303138312850106
:0E02600008008B178B150B108B160B11080066
:04400E00C430FF3F7C
:00000001FF
