:060000000A128A11142906
:10000800F000030EF1000B1810200B191820710EC8
:100018008300F00E700E090003138312061C850A74
:10002800861C85030B1008001F20031383126430FD
:1000380081000B110800081088100811F3183328E4
:10004800731828282E28080076088700881473104B
:10005800F314080077088700081473140800780858
:0A006800870008157310F31008005C
:100200008A010A140F3982073F3406345B344F34B5
:1002100066346D347D3407347F346F3477347C3406
:1002200039345E347934713447214E212E21252111
:100230004121031383120508F2005B21FB01FA013F
:10024000F90165216E2177211B29031383161614EA
:1002500096140313831206080B1008000317831665
:10026000880189010313831685018701880106141B
:100270008614811303138312850187018801F3011A
:1002800008008B178B150B108B160B11080003132E
:1002900083160F138F160F120F1408000313831603
:1002A0008112811101118110011403138312643032
:1002B00081000B1108007A080021F600790800215E
:1002C000F7007B080021F80008006430F202F90A08
:1002D00003186529F9036430F20708000A30F202B6
:1002E000FA0A03186E29FA030A30F20708000130EF
:1002F000F202FB0A03187729FB030130F20708001A
:04400E00C430FF3F7C
:00000001FF
