:060000000A128A11142906
:10000800F000030EF1000B1810200B191820710EC8
:100018008300F00E700E090003138312061C850A74
:10002800861C85030B1008001F20031383126430FD
:1000380081000B11080008108810731C2428292837
:100048007608870088147314080077088700081456
:040058007310080019
:100200008A010A140F3982073F3406345B344F34B5
:1002100066346D347D3407347F346F3477347C3406
:1002200039345E3479347134422149212921202125
:100230003C21031383120508F20056215E211B297D
:1002400003138316161496140313831206080B1057
:10025000080003178316880189010313831685019B
:100260008701880106148614811303138312850104
:1002700087018801F30108008B178B150B108B1673
:100280000B110800031383160F138F160F120F1490
:1002900008000313831681128111011181100114CA
:1002A00003138312643081000B1108000F307205B4
:1002B000F400F0307205F500F50E08007408002116
:0A02C000F60075080021F7000800A1
:04400E00C430FF3F7C
:00000001FF
